:107E000001C0E7C0112484B7811561F0982F9A70E2
:107E1000923041F081FF02C097EF94BF282E80E09E
:107E2000C3D0EEC085E08093810082E08093C000E3
:107E300088E18093C10086E08093C20089E180934D
:107E4000C4008EE0B1D0259A86E028E13EEF91E0B3
:107E5000309385002093840096BBB09BFECF1D9A83
:107E6000A8954091C00047FD02C08A9589F723E09C
:107E7000E22EDD24D39435E0C32E41E1B42E88D028
:107E8000853509F448C080F4853409F442C038F4DB
:107E9000813489F1823409F439C08CD034C0813501
:107EA000E1F788E081D0F9CF843709F45DC0D0F4E0
:107EB000863509F437C0843681F76AD069D0182F27
:107EC00067D0082F612C7724739443018FEF681AD1
:107ED000780A5ED0F40180831611F7CF6BD0053499
:107EE00029F5FFCF8537C9F665D08EE14AD085E9FF
:107EF00048D08FE007C04CD0182F5CD083E01138F9
:107F000009F488E03ED080E13CD0B9CF84E15AD07A
:107F1000FACF85E0FCCF3CD0C82F3AD0D82FCC0F79
:107F2000DD1FBBCF84E04ED080E0ECCFFE01E7BE8A
:107F3000E89507B600FCFDCFFE0120E031E0D90155
:107F40002E5F3F4F8D919C910C01D7BEE895112477
:107F500032961213F4CFFE01C7BEE89507B600FCB7
:107F6000FDCFB7BEE895CFCF13D012D0F82E10D0EA
:107F700021D08E01F80185918F0103D0FA94D1F7B9
:107F8000C2CF9091C00095FFFCCF8093C6000895AA
:107F90008091C00087FFFCCF8091C00084FD01C0AC
:107FA000A8958091C6000895E0E6F0E098E19083FE
:107FB00080830895EDDF803219F088E0F5DFFFCF90
:107FC00084E1DFCFCF93C82FE3DFCA95E9F7CF91E4
:107FD000F1CFFC010A0167BFE895112407B600FC48
:107FE000FDCF6670611529F0452B19F481E187BF3B
:047FF000E895089573
:027FFE00030876
:0400000300007E007B
:00000001FF
